S01700004763634170706C69636174696F6E332E7372656359
S11300000C9448000C9452000C9452000C9452002E
S11300100C9452000C9452000C9452000C94520014
S11300200C9452000C9452000C9452000C94520004
S11300300C9452000C9452000C9452000C945200F4
S11300400C9452000C9452000C9452000C945200E4
S11300500C9452000C9452000C9452000C945200D4
S11300600C9452000C9452000C9452000C945200C4
S11300700C9452000C9452000C9452000C945200B4
S11300800C9452000C9452000C9452000C945200A4
S113009011241FBECFEFCDBFDFE3DEBF0E947E0081
S11300A00C949A000C940000CF93DF93CDB7DEB785
S11300B02697CDBFDEBF8B839C836D837E838B812C
S11300C09C81FC018081918189839A838D819E81A9
S11300D0FC01208131818B819C81FC01208331834F
S11300E08D819E8129813A81FC0120833183000026
S11300F02696CDBFDEBFDF91CF910895CF93DF93D6
S113010000D000D0CDB7DEB78DE090E089839A832C
S11301108CE090E08B839C83CE010396BC01CE01DE
S113012001960E94540000002496CDBFDEBFDF91EB
S10B0130CF910895F894FFCF6C
S9030000FC
