S0140000515F325F504F494E544552532E737265635B
S11300000C9448000C9452000C9452000C9452002E
S11300100C9452000C9452000C9452000C94520014
S11300200C9452000C9452000C9452000C94520004
S11300300C9452000C9452000C9452000C945200F4
S11300400C9452000C9452000C9452000C945200E4
S11300500C9452000C9452000C9452000C945200D4
S11300600C9452000C9452000C9452000C945200C4
S11300700C9452000C9452000C9452000C945200B4
S11300800C9452000C9452000C9452000C945200A4
S113009011241FBECFEFCDBFDFE3DEBF0E94B0004F
S11300A00C94D3000C940000CF93DF93CDB7DEB74C
S11300B02A97CDBFDEBF8F83988769877A87198295
S11300C01A8289859A8501978B839C833AC089819A
S11300D09A81880F991F2F813885820F931FFC0105
S11300E0808191818D839E8389819A81880F991F54
S11300F02F813885820F931F2B813C81220F331F60
S11301004F815885240F351FF90120813181FC016D
S1130110208331838B819C81880F991F2F8138859F
S1130120820F931F2D813E81FC01208331838981BD
S11301309A81019689839A838B819C8101978B8311
S11301409C8329813A818B819C81281739070CF47F
S1130150BECF00002A96CDBFDEBFDF91CF910895B8
S1130160CF93DF93CDB7DEB72C97CDBFDEBF8AE048
S1130170EAEAF1E4DE01139601900D928A95E1F723
S113018085E090E089839A8329813A81CE010396A0
S1130190B9010E94540080E090E02C96CDBFDEBFF0
S10D01A0DF91CF910895F894FFCF8A
S10D01AA0100020003000400050038
S9030000FC
